:100000000C9434000C9451000C9451000C94510049
:100010000C9451000C9451000C9451000C94230347
:100020000C9451000C9451000C9451000C9451000C
:100030000C9451000C9451000C9451000C945100FC
:100040000C9451000C9451000C9449020C945100F2
:100050000C9451000C9451000C9451000C945100DC
:100060000C9451000C94510011241FBECFEFD8E026
:10007000DEBFCDBF11E0A0E0B1E0ECE8F0E102C0EE
:1000800005900D92A63CB107D9F722E0A6ECB1E0AD
:1000900001C01D92A531B207E1F70E9407080C9438
:1000A00044080C940000CF93DF930F92CDB7DEB7D6
:1000B0006AE00E940D089983805D0E942102898177
:1000C000805D0F90DF91CF910C9421020E94580720
:1000D0000E9446070E94670785E191E00E9428027E
:1000E0002FEF8FE097E2215080409040E1F700C071
:1000F00000000C947D07CF93DF9300D00F92CDB713
:10010000DEB7CE0101960E94BA0781111DC084E2BC
:1001100091E00E9428028B810E9453008AE30E9492
:1001200021028A810E9453008AE30E942102898170
:100130000E94530080E791E00E9428020F900F90E8
:100140000F90DF91CF9108958FE291E0F5CF0E945B
:1001500058070E944C070E947D070E94A60786E46C
:1001600091E00E9428020E947B002FEF8BE792E92A
:10017000215080409040E1F700C000000E94AD0790
:100180000E9458070C9446071092CC0160E071E081
:1001900088EC91E00E943B08892B29F40E94A7007B
:1001A0001092C70108950E946600FACF8A3018F4B1
:1001B000805D0C942102895CFCCF0E94AD0260E856
:1001C00075E280E090E00E94FB010E9419070E9406
:1001D0005E070E9420040E9460070E9483070E941D
:1001E000B4070E94F1050E947B000E9458070E94FC
:1001F00046070E94AD0786E591E00E94280284E64A
:1002000091E00E94280282E791E00C9428020F936B
:100210001F93CF93DF93CDB7DEB72F970FB6F89428
:10022000DEBF0FBECDBF0E947004182F811599F15B
:1002300084E891E00E942802812F0E94210280E739
:1002400091E00E94280280ED810F8A30C8F40E945C
:1002500058070E9452072FEF87EE93E0215080400D
:100260009040E1F700C000000E9455070E94460739
:100270008091C701843008F44EC0843061F46EC0B0
:100280001134D9F581E08093C6011092C7018AE844
:1002900091E00E9428028091C601811519F1BE01EA
:1002A000615F7F4FCE010D960E941E06892BD1F40F
:1002B0008AEA91E00E942802CE0101960E945B0624
:1002C000892B61F48BEB91E00E94280210E08B8572
:1002D000181750F180E791E00E9428021092C601A1
:1002E0000E94A7002F960FB6F894DEBF0FBECDBFB9
:1002F000DF91CF911F910F9108951A3241F510921D
:10030000C7011092C6018CE991E0C3CF0E9466003C
:100310001092C701C0CFE82FF0E0E853FE4F1083E2
:100320008F5F8093C701A9CFFE013196E10FF11DC8
:100330000081802F82958F700E94D600802F8F7051
:100340000E94D60080E20E9421021F5FC0CF1332BC
:1003500009F0A1CF8091C7018430C1F60E94C4008A
:100360009ACFFC01908121E001C0220F6A95EAF743
:10037000922B90830895FC01408121E001C0220F5F
:100380006A95EAF72095242320830895FC01908143
:1003900021E001C0220F6A95EAF7922B908308951D
:1003A0000C94BB01FC01908121E001C0220F6A95F1
:1003B000EAF7922790830895CF93DF9300D00F92AE
:1003C000CDB7DEB76A837B834983642F0E94BB016C
:1003D000EA81FB81408161E070E0098002C0660F24
:1003E000771F0A94E2F7462B40830F900F900F90EF
:1003F000DF91CF910895CF93DF939B01AC0184E00F
:10040000220F331F441F551F8A95D1F760E074E215
:1004100084EF90E00E941908E90121978DEC91E0AA
:100420000E947102D093C500C093C4001092C00016
:1004300088E98093C10086E08093C200DF91CF916C
:1004400008959091C00095FFFCCF8093C600089559
:10045000CF93DF93EC018881811103C0DF91CF91AD
:10046000089521968A3019F48DE00E942102FE0140
:1004700082910E942102EFCFF894BC018DEC91E0B3
:100480000E94980278940895F8948091CF0178940E
:1004900008951F920F920FB60F9211242F933F933E
:1004A0004F935F936F937F938F939F93AF93BF937C
:1004B000EF93FF936091C6008DEC91E00E94830260
:1004C000FF91EF91BF91AF919F918F917F916F912C
:1004D0005F914F913F912F910F900FBE0F901F9002
:1004E0001895FC011082118212820895FC019281FC
:1004F00081E0911180E00895FC01928181E09034C7
:1005000008F480E00895FC018281803478F4A081B1
:10051000AE0FBF2FB11D13966C9380818F5F8F73C9
:10052000808382818F5F828381E0089580E00895D7
:10053000FC018281811581F0A181AE0FBF2FB11D19
:1005400013968C91DB018C9381818F5F8F738183F4
:1005500082818150828381E0089582E08093B0009F
:1005600094E09093B1008093700089EF8093B30082
:1005700008952FB7F8946091100270911102809144
:100580001202909113022FBF0895E4E6F0E08081FB
:100590008F7B8083E0E78081826080830895E0E73D
:1005A000F0E080818D7F8083E4E6808180648083B9
:1005B00008958FB7F89410921002109211021092C1
:1005C0001202109213028FBF0895EFB7F894209192
:1005D0001002309111024091120250911302DC017D
:1005E000CB01820F931FA41FB51F8093100290931D
:1005F0001102A0931202B0931302EFBF0895EF927D
:10060000FF920F931F93EFB7F8942091100230914F
:100610001102409112025091130279018A01E61AE7
:10062000F70A080B190BC701D801809310029093A9
:100630001102A0931202B0931302EFBF1F910F910A
:10064000FF90EF9008951F921FB61F9211248F9371
:100650009F93AF93BF938091100290911102A0914C
:100660001202B09113020196A11DB11D80931002D8
:1006700090931102A0931202B0931302BF91AF9115
:100680009F918F911F901FBE1F90189584B18C620F
:1006900084B924982A9A81E58CBD1DBC08958EBD2D
:1006A0000DB407FEFDCF8EB508959B01AC011092ED
:1006B000B90060E074E284EF90E00E9419082051D4
:1006C000310941095109569547953795279520934A
:1006D000B80084E08093BC00089584EA8093BC0055
:1006E0008091BC0087FFFCCF9091B900987F21E0FA
:1006F000903109F420E081E0983009F480E0822311
:10070000089584E98093BC008091BC0084FDFCCFF7
:1007100008958093BB0084E88093BC008091BC0066
:1007200087FFFCCF9091B900987F983129F09832DB
:1007300019F081E0903409F480E0089584EC80930E
:10074000BC008091BC0087FFFCCF8091BB00089566
:1007500084E88093BC008091BC0087FFFCCF80912F
:10076000BB000895CF93DF9300D00F92CDB7DEB7D3
:100770008B8369834A830E946D03811549F081E070
:10078000898389810F900F900F90DF91CF91089509
:100790008B81880F0E9489038111F1CF89810E948A
:1007A00089038111ECCF8A810E9489038983811199
:1007B000E6CF0E948103E5CFCF93DF9300D000D036
:1007C000CDB7DEB78C8369834A835B830E946D0358
:1007D000811551F081E0898389810F900F900F90EE
:1007E0000F90DF91CF910895EC81EE0FEC838E2F67
:1007F0000E9489038111EECF89810E9489038111B2
:10080000E9CF0E946D038111E5CF8C8181600E9448
:10081000890389838111DECF0E94A803EA81FB81CD
:1008200080830E948103D8CF80E00E942D0781E061
:100830000E942D0782E00E942D0783E00C942D0773
:100840008AB18F708AB98BB1806F8BB980E00E94BA
:100850002D0781E00E942D0782E00E942D0783E092
:100860000C942D07CF93DF930E94140480E00E9424
:100870003907C0E02AE12A95F1F700C04F9B16C066
:100880004E9B24C04D9B24C04C9B24C0CF5FC430E2
:1008900019F10E941404C13021F481E00E9439074B
:1008A000E9CF82E0C230D1F383E0F8CFD0E00E94FC
:1008B000140424E0C29FC00111248B5F9E4FFC01F1
:1008C000ED0FF11D8081DF91CF910895D1E0EFCF41
:1008D000D2E0EDCFD3E0EBCF0E94140480E0F3CF61
:1008E000CF930E943204C82F811104C0C0E08C2F26
:1008F000CF9108952FEF89EF90E0215080409040F4
:10090000E1F700C000000E9432048C13EFCF0E9478
:100910003204811561F38FE19EE40197F1F700C085
:100920000000F5CFCF93DF930F92CDB7DEB7698389
:100930002A98880F8E770E944F0389810E944F0367
:100940002A9A0F90DF91CF9108952A98880F8E7779
:1009500080680E944F0380E00E944F032A9A089506
:100960000F931F93CF93DF9300D000D00F92CDB79A
:10097000DEB78B83192F062F49835A8360E081E00D
:100980000E94920464E085E00E94920460E88AE09C
:100990000E9492048B818C831D83EC81FD81E00F8A
:1009A000F11D8F01EC81FD816191EC83FD8389E074
:1009B0000E9492048C819D818017910799F763E0D2
:1009C00081E00E949204E8E8F3E1EC83FD8385E096
:1009D0000E94A50482FF1CC060E081E00E94920496
:1009E00082E20E94A504E981FA81808381E20E946B
:1009F000A504E981FA81818380E090E00F900F9057
:100A00000F900F900F90DF91CF911F910F9108954C
:100A10008C819D8101978C839D83892BC1F682E017
:100A200090E0ECCFCF93DF9300D0CDB7DEB78983D2
:100A30006A830E94A5046A81682B89810F900F90B8
:100A4000DF91CF910C949204CF93DF9300D0CDB778
:100A5000DEB789836A830E94A5046A816095682352
:100A600089810F900F90DF91CF910C949204EF92B7
:100A7000FF920F931F93CF93DF9300D000D000D04D
:100A80000F92CDB7DEB78D83E62E4E835F83298329
:100A90003A830B831C8360E081E0192F0E9492044B
:100AA0006FE784E00E94920460E88AE00E9492046A
:100AB0000D81E00EF12EF11CF80161918F0189E0AA
:100AC0000E9492040E151F05B9F76CE081E00E94A8
:100AD000920460E88DE00E941205E12CF12C84E084
:100AE0000E94A504182F8073C9F410FF0FC082E084
:100AF00090E027960FB6F894DEBF0FBECDBFDF9112
:100B0000CF911F910F91FF90EF900895FFEFEF1A93
:100B1000FF0A88E8E81683E1F80609F760E88DE047
:100B20000E94240598E8E91693E1F90601F386E0AE
:100B30000E94A504837191F584E090E013FDD9CF64
:100B40008AE00E94A504182F8CE00E94A5048770FB
:100B5000EB81FC8180838E819F81892BA9F0E981C3
:100B6000FA81F0801F1508F4F12E0E811F81C80153
:100B70008F0D911D8B839C838B819C810817190796
:100B800031F4E981FA81F08280E090E0B2CF89E02F
:100B90000E94A504F80181938F01EECF81E090E0DF
:100BA000A8CF6FE081E00E9492042FEF80E792E0EF
:100BB000215080409040E1F700C00000089587E395
:100BC0000C94A50484E10E94A5048370833021F075
:100BD00063E084E10C941205089563E084E10C94D1
:100BE0002405229A209A2A9A28988FE39FE1019758
:100BF000F1F700C00000289A8FE39CE90197F1F714
:100C000000C000000E94D1056DE88AE20E949204B3
:100C10006EE38BE20E9492046EE18DE20E949204E8
:100C200060E08CE20E94920460E485E10E949204FC
:100C30006DE381E10E9492040C94E205CF92DF9271
:100C4000EF92FF920F931F93CF93DF9300D00F92F9
:100C5000CDB7DEB76C017B0186E28A8382E08983AF
:100C6000C114D10471F481E090E00F900F900F90C7
:100C7000DF91CF911F910F91FF90EF90DF90CF9078
:100C80000895672B81F367E08DE00E9492048E0146
:100C90000D5F1F4F9E012F5F3F4FA60161E0CE0108
:100CA00002960E943705009701F729812230D9F674
:100CB000F7012083DACFDF92EF92FF920F931F9319
:100CC000CF93DF93CDB7DEB72B970FB6F894DEBF87
:100CD0000FBECDBF7C01892B81F481E090E02B9683
:100CE0000FB6F894DEBF0FBECDBFDF91CF911F913D
:100CF0000F91FF90EF90DF90089560E08DE00E94EB
:100D0000920485E08B8783E9D82ED98280E28A839A
:100D10001B821C821D828E01065F1F4F9E01255F74
:100D20003F4FAE014F5F5F4F62E0CA010E9437053F
:100D30000097A9F68B85853081F639812A819B81C0
:100D40004C81832F8227892784275D818513C5CF16
:100D5000F701308321839283438354E052874E838B
:100D60008F83D98280E78A833B832C839D83AE0166
:100D7000485F5F4F67E0CE0101960E94B004892B67
:100D800009F0ABCF83E08B879E01255F3F4FAE011B
:100D90004F5F5F4F69E0CA010E943705009709F075
:100DA0009ECF2B85233009F098CF2981F701238727
:100DB00096CF0F931F93CF93DF9300D000D000D036
:100DC000CDB7DEB71E8280E589831A82AE014D5F02
:100DD0005F4F62E0CE0101960E94B004892BC1F4FE
:100DE0008E010B5F1F4F9E012A5F3F4F40E050E096
:100DF00064E0CE0101960E9437050F900F900F908E
:100E00000F900F900F90DF91CF911F910F91089548
:100E100081E090E0F2CF62E08BE290E00E94D001AE
:100E2000809114020E944F0362E08BE290E00C94E8
:100E3000C60162E08AE290E00E94B10162E08BE2CA
:100E400090E00E94C6010E944603109214020C9486
:100E50000B07809314020C940B0721E001C0220FB2
:100E60008A95EAF780911402822B809314020C94E5
:100E70000B0721E001C0220F8A95EAF720958091A7
:100E800014028223809314020C940B0785E00C94C7
:100E90002D0785E00C94390786E00C942D0786E039
:100EA0000C94390787E00C942D0787E00C943907E0
:100EB0000E9449070E944F070C9455070C9458074D
:100EC000539A1092B0001092B1005B980895E0EB35
:100ED000F0E01082A1EBB0E01C9280818062808300
:100EE0008081826080838081816080838C91846036
:100EF0008C9380E88093B40008951092B000109213
:100F0000B1005B980895219AA0E8B0E01C92E1E856
:100F1000F0E010828C9180688C938C9182608C932D
:100F2000808180618083808188608083808182600D
:100F300080838FE39CE9909387008093860080ED07
:100F400097E09093890080938800089580EA9FE05D
:100F50009093890080938800089580ED97E09093A6
:100F6000890080938800089560EA76E881E090E047
:100F70000C9455030F931F93CF93DF9300D00F92E0
:100F8000CDB7DEB78C01892B49F481E00F900F902B
:100F90000F90DF91CF911F910F910895AE014D5F9A
:100FA0005F4F60E088E60E94DC038111EECFAE0166
:100FB0004E5F5F4F61E088E60E94DC038111E5CF60
:100FC000AE014F5F5F4F62E088E60E94DC03811153
:100FD000DCCF2B81922F929597703AE02F70939FE0
:100FE000200D1124F80120839A81292F22952F703A
:100FF0009F70239F900D112491832981922F9295A8
:1010000093702F70939F200D11242283BFCF0E94D5
:10101000DD0078940E940701FDCF992778E0880FC2
:10102000991F961708F0961B881F7A95C9F7809527
:101030000895A1E21A2EAA1BBB1BFD010DC0AA1F19
:10104000BB1FEE1FFF1FA217B307E407F50720F031
:10105000A21BB30BE40BF50B661F771F881F991FAC
:101060001A9469F760957095809590959B01AC01F5
:10107000BD01CF010895FB01DC018D910190801924
:0C1080000110D9F3990B0895F894FFCFEC
:10108C00313233340031323341343536423738392A
:10109C00432A3023444163636573732064656E692E
:1010AC0065640A005254432074696D653A200052FD
:1010BC00544320636F756C64206E6F7420626520DE
:1010CC00726561640A0041636365737320677261C2
:1010DC006E7465640A0053797374656D2072656172
:1010EC0064790A00436F64652069732031323334AC
:1010FC000A005072657373204120666F722052464D
:10110C0049440A004B65793A200052464944206D07
:10111C006F6465206163746976650A00436F64656A
:10112C0020636C65617265640A0052464944206311
:10113C0061726420666F756E640A005246494420E1
:06114C005549443A200061
:00000001FF
